:020000040800F2
:1000000018520020C1020008F9390008192A000816
:10001000F539000861230008CF56000800000000F1
:100020000000000000000000000000004D5000082B
:1000300065230008000000007F4C00080152000802
:10004000DB020008DB020008DB020008DB0200081C
:10005000DB020008DB020008DB020008DB0200080C
:10006000DB020008DB020008DB020008DB020008FC
:10007000DB020008DB020008DB020008DB020008EC
:10008000DB020008DB020008DB020008DB020008DC
:10009000DB020008DB020008DB020008DB020008CC
:1000A000DB020008DB020008DB020008DB020008BC
:1000B000655200087D520008DB020008DB020008E0
:1000C000DB020008DB020008DB020008DB0200089C
:1000D000DB02000899540008B5540008DB02000850
:1000E000DB020008DB020008DB020008DB0200087C
:1000F000DB020008DB020008DB020008DB0200086C
:10010000DB020008DB020008DB020008DB0200085B
:1001100029540008DB020008DB020008995200089D
:10012000DB020008DB020008DB020008DB0200083B
:1001300000F002F800F0B4F80AA090E8000C824445
:100140008344AAF10107DA4501D100F0A9F8AFF222
:10015000090EBAE80F0013F0010F18BFFB1A43F0A5
:1001600001031847DCA80000FCA800000A444FF077
:10017000000C10F8013B13F0070408BF10F8014B06
:100180001D1108BF10F8015B641E05D010F8016B4B
:10019000641E01F8016BF9D113F0080F1EBF10F8AF
:1001A000014BAD1C0C1B09D16D1E58BF01F801CBD2
:1001B000FAD505E014F8016B01F8016B6D1EF9D555
:1001C0009142D6D37047000000230024002500266A
:1001D000103A28BF78C1FBD8520728BF30C148BFAA
:1001E0000B6070476E2900F0F584702900F0E781FC
:1001F000662908F08986652908F08686672908F04F
:1002000083866129AFF3008003681B0A28BF41F091
:100210008001692900F05881642900F05581752911
:1002200000F052816F2900F0F187782900F0B38146
:10023000E92900F08B87E42900F08887F52900F090
:100240008587EF2900F0EE87F82900F0B281036876
:10025000DB0928BF41F08001632900F00C87732976
:1002600000F01187E32901F0D180F32901F0D68055
:10027000002070471FB59DE8030000F0FFFB01F070
:1002800017F804000020002107F012FF401C6060F6
:100290000020002107F022FFE0601FBD10B510BD57
:1002A00001F0A6F91146FFF7E5FF06F09FF801F00F
:1002B000D2F903B4FFF7F2FF03BC01F03FFA0000EC
:1002C0000948804709480047FEE7FEE7FEE7FEE7EA
:1002D000FEE7FEE7FEE7FEE7FEE7FEE70448054926
:1002E000054A064B7047000005520008310100081E
:1002F000184C002018520020184E0020184E0020E4
:1003000070B5064600F09AFB056806F10B0020F078
:100310000704B4429CBF002070BD2B466A68BAB186
:100320001068A04210D304F1080188423CBF506815
:10033000586007D35168101941601168091B0160AA
:1003400058601460101D70BD13465268002AE7D132
:100350002146284600F07EFB0028DED170BD70B536
:100360000446051F00F06AFB0068002C14BF4468B7
:1003700070BD002C18BFAC423CBF20466468F8D367
:1003800001680A18AA4218BF456003D12A680546C9
:100390001144016028684119A1421CBF6C6070BD06
:1003A0006168696021680844286070BD10B5044622
:1003B00000F03CFB0068005DC00602D504F120009F
:1003C00010BD204610BD00007CB51D4616460C0031
:1003D000009001D02044401E074B7B442A466946CA
:1003E0000190304600F01DFE05461CB10020694614
:1003F00000F02AFE28467CBD750C00000FB41CB529
:10040000084B06AA7B4469460090059800F009FE57
:1004100004460020694600F017FE20461CBC5DF82B
:1004200014FB0000410C000070B5044685690068AB
:10043000C10601D5302600E02026C00707D070BDD8
:10044000D4E9012130469047206A401C20626D1E8D
:10045000F6D570BD70B5044685690078C00707D130
:1004600070BDD4E9012120209047206A401C206201
:100470006D1EF6D570BD70B50C460546012A05D037
:100480002878800600D5EA69002302E0012305E010
:100490005B1C934202D2E05C0028F9D1A869E618FF
:1004A000C01AA861286A184428622846FFF7BCFFD2
:1004B00004E0D5E9012114F8010B9047B442F8D3C8
:1004C0002846FFF7C7FF70BD2DE9F041064600241E
:1004D00010687529314616A510D000F010FB0028D1
:1004E00002DA404213A507E031688A0701D512A558
:1004F00002E0490704D511A5012401E000F008FB42
:1005000000210A2206F1240709E0B0FBF2FCB0FB4F
:10051000F2F302FB1C00303078541846491C0028C6
:10052000F3D123462A463046BDE8F04100F0F9BA3F
:10053000000000002D0000002B0000002000000043
:10054000F0B40D460188090502D5214C7C4402E037
:100550001F4C7C440E34002100F1240608E002F018
:100560000F071209E75D42EA03721B097754491C21
:1005700052EA0307F3D102780023120704D5702D45
:1005800006D009B1022311342246F0BC00F0C9BAEA
:1005900001231034F8E770B504460D462146106873
:1005A00000F0B6FA024629462046BDE87040002316
:1005B000C6E7D21D22F00703D3E90023C0E7036892
:1005C000126843F0200303600823C3610023B7E7E8
:1005D00069A300002DE9F05F894604464FF0000A48
:1005E000DFF874B1FB44C0F820A02046E1688847DA
:1005F000002874D0252806D0D4E901219047206A2C
:10060000401C2062F1E700265F462046E1688847EB
:100610002028054607DB312D05D2781910F8200C6B
:1006200008B10643F1E7B00701D526F00406C4F887
:100630001CA00027C4F818A02A2D09D0284605F0D0
:1006400025FA38B304EB8708303DC8F8185019E094
:1006500059F8041B204604EB87029161E168884742
:10066000012F054618D1E069002820DA26F020067F
:100670001DE0D8F8180000EB800005EB4000303892
:10068000C8F818002046E1688847054605F0FEF9DD
:100690000028EED1012F0AD02E2D08D12046E16886
:1006A00088477F1C0546022F46F02006C4DBA06960
:1006B000002803DA404246F00106A061F00701D0AD
:1006C00026F010066C2D0BD0682D09D04C2D39D09A
:1006D0006A2D35D0742D35D07A2D33D016E038E020
:1006E000E1682F4620468847B842054609D16C2F5D
:1006F00026D04FF48060E1680643204688470546CF
:1007000004E06C2F1AD04FF4807006430DB3A5F1AE
:100710004100192802D8203546F400664A46294689
:10072000204626604E46FFF75DFD80B101280BD0C4
:10073000F61D26F0070000F1080956E74020E4E71F
:100740008020D8E70020D6E706F104094DE72846C7
:1007500052E7206ABDE8F09FF9A2000070B5064696
:1007600000F070F90468054630460A22002100F0C6
:1007700063FD2C6070BD401ECAB210F8011F8A4292
:1007800002D00029F9D10020704710B5431E13F89C
:10079000014F002CFBD105E011F8014B002C03F8B0
:1007A000014B03D0521EF7D20021197010BD30B595
:1007B00005460B462A4613F8014B12F8010B08B107
:1007C000A042F8D01CB1002802D06D1CF1E72846E9
:1007D00030BD10B5431C02E010F8011B71B1810758
:1007E000FAD14FF0013202C88C1A8C4314EAC211BC
:1007F000F9D0C01A0A0603D0C01E10BDC01A10BD21
:100800000A0401D0801E10BD0902FCD0401E10BD9C
:1008100040EA010370B59B072ED14FF00136042A40
:100820002AD308C810C99D1B9D43121F15EAC6157F
:1008300017D0D8B2E1B2401A50EA056110D198B28F
:10084000A1B2401A50EA05410AD123F07F4024F0BA
:100850007F41401A50EA052102D1180EA0EB146026
:1008600070BDA342DBD018BA21BA884201D9012059
:1008700070BD4FF0FF3070BD0AB9002070BD10F898
:10088000013B11F8014B63B1A3420AD1521E08D0BB
:1008900010F8013B11F8014B1BB1A34201D1521ECC
:1008A000EDD1181B70BD032A40F2308010F0030C0C
:1008B00000F0158011F8013BBCF1020F624498BFB3
:1008C00011F801CB00F8013B38BF11F8013BA2F150
:1008D000040298BF00F801CB38BF00F8013B11F0CB
:1008E000030300F02580083AC0F0088051F8043B6B
:1008F000083A51F804CBA0E80810F5E7121D5CBFD8
:1009000051F8043B40F8043BAFF30080D20724BF0A
:1009100011F8013B11F801CB48BF11F8012B24BF9E
:1009200000F8013B00F801CB48BF00F8012B7047ED
:1009300010B5203AC0F00B80B1E81850203AA0E87A
:100940001850B1E81850A0E81850BFF4F5AF5FEAAE
:10095000027C24BFB1E81850A0E8185044BF18C961
:1009600018C0BDE810405FEA827C24BF51F8043B08
:1009700040F8043B08BF7047D20728BF31F8023B5C
:1009800048BF11F8012B28BF20F8023B48BF00F8F0
:10099000012B70474FF000020429C0F0128010F0C4
:1009A000030C00F01B80CCF1040CBCF1020F18BF4B
:1009B00000F8012BA8BF20F8022BA1EB0C0100F0DE
:1009C0000DB85FEAC17C24BF00F8012B00F8012BB1
:1009D00048BF00F8012B70474FF0000200B51346E6
:1009E00094469646203922BFA0E80C50A0E80C504F
:1009F000B1F12001BFF4F7AF090728BFA0E80C5000
:100A000048BF0CC05DF804EB890028BF40F8042BF8
:100A100008BF704748BF20F8022B11F0804F18BF65
:100A200000F8012B704770477047704710B500F011
:100A30003FFC001D10BD00BF7976000000487047E4
:100A4000C04B002000487047B84B002070477047EB
:100A50007047704738B504460A4600206946AFF330
:100A60000080002808BF38BD02460099204600F0EB
:100A700023FC012038BD012000F0B2BDF8B5AFF372
:100A80000080054600200C46102000BF0646A8192D
:100A9000A0420DD9324669460020AFF3008007001E
:100AA00008BF00F09DFD0098A04218BF0546C4197C
:100AB000FFF7C4FF05600746F01D20F00700461948
:100AC000284600F00AF8B44208BFF8BDA21B314620
:100AD0003868BDE8F84000F0EFBB00210160C0E9D4
:100AE000011070471020704710B5FFF7ABFF00688A
:100AF00010BD10B50446FFF7A5FF046010BD0968DE
:100B00004A0501D540B27047C905FCD500B270470F
:100B100009684A0501D5C0B27047C905FCD580B245
:100B200070472DE9F0470D4699469246044600F17C
:100B300024080168880604D5E06921F010012160CD
:100B400000E00120A84201DD471B00E00027A16969
:100B50007A1902EB0900081AA0612078C00602D4B5
:100B60002046FFF761FC002608E0D4E901211AF8CD
:100B700006009047206A401C761C20624E45F4DB3C
:100B80002078C0060AD52046FFF74EFC06E0D4E9DF
:100B9000012130209047206A401C2062381EA7F1B6
:100BA0000107F4DC07E0D4E9012118F805009047BB
:100BB000206A401C2062281EA5F10105F3DC2046B6
:100BC000FFF748FC2078000602D50220BDE8F08738
:100BD0000120FBE711680268006A530501D508701F
:100BE0000AE0D30501D5088006E0130603D5C21735
:100BF000C1E9000200E008600120704770472DE95C
:100C0000FF4F0C461E464FF0FF378BB0D2E9000174
:100C1000DDF860800A908A46C1F30A5505B93D4661
:100C2000002108464FF00000BAF1000F00F4400028
:100C300005DA00EB80004FF4400101EA50004FEA72
:100C40009059B9F1010F00DDB9460A9850EA4A00FF
:100C50000ED044F61050A5F2FF3545432F14B8F1DD
:100C6000000F1ED07542291E1EDDC9F100021CE0D6
:100C7000B8F1010F4FF0000001D0302103E0F24342
:100C800005E02154401CB042FBDB3046002200212D
:100C900021540B99C1F80880C1E900200FB0BDE8CC
:100CA000F08FBD1B6D1CDEE74A4600DA694206A8DC
:100CB00000F008FC06AB93E8070003AB83E80700ED
:100CC00050460A9900F060FD8DE80700A0F500503D
:100CD0001F3800900398002D09DD42F21F014A469B
:100CE000084403A90390684600F0BFFF08E0A0F5A0
:100CF00000504A461F3803A90390684600F0C9FF18
:100D00008DE807000004000C03D04FF0FF304108CD
:100D100000E01046B8F1000F03D000220092154603
:100D20001EE0751E05D400F0E1FA303262556D1EEA
:100D3000F9D5B3460122084302D000227F1C04E00B
:100D40002078302801D100227F1E002A099786D002
:100D50001DE0112D07DA00F0C9FA303262556D1C22
:100D600050EA0102F5D1084302D00098C8B10EE064
:100D70000021681E05E0235C625C63542254401E1F
:100D8000491C8142F7DBAB46A81B401E099000209E
:100D900004F80B000B98099AC0F80880C0E9002BF2
:100DA0007CE711264FF0000859E72DE9F04F8846FF
:100DB0000446D21D22F0070191B0D1E90001CDE92E
:100DC0000A0104F0DAFD02460B98C00F01D02D2075
:100DD00007E02068810701D52B2002E0202101EAED
:100DE000C000032A099001D0072A05DB03464146CB
:100DF000204600F0C1FA0BE12078800601D5E069B9
:100E000000E00620B8F1650F814606D0B8F1660F04
:100E100018D0B8F1670F70D131E00020B9F1110F8F
:100E2000009001DB112301E009F101030AAA01A9E5
:100E30000CA8FFF7E4FEDDE90C70002609F10105BE
:100E4000834647E001204B4600904FF000470AAA36
:100E500001A90CA8FFF7D3FEDDE90DB00C995D46A2
:100E6000002610B909F101000D18B9EB050003D4F3
:100E7000C0F1FF3609F10105A5EB09002BE0B9F13E
:100E8000010F01DA4FF001090020B9F1110F0090B4
:100E9000484601DD112300E003460AAA01A90CA877
:100EA000FFF7ADFEDDE90C704D4600268346207845
:100EB00000070AD4AB4500DA5D4601A8012D04DD28
:100EC000411911F8011C302907D04F4502DA17F1FA
:100ED000040F04DA012082460FE06D1EEEE7002FBA
:100EE00002DCED1B3E4403E0781CA84200DD7D1CC3
:100EF000B81B00F1010A4FF000472078000703D427
:100F0000AA4501DB4FF0FF3A0021B7F1004F0DF188
:100F100043088DF8431024D002202B23002F01DA40
:100F20007F422D230A21021EA0F1010000DC5FB1E7
:100F300097FBF1FC97FBF1F201FB1C7C17460CF1CF
:100F4000300C08F801CDEEE7A8F10100037021880C
:100F5000090501D5452100E06521A0F1010800F84F
:100F6000011C09980FA9A1EB0807FF1D00B1012082
:100F7000411901EBEA70A1693844081A401EA061CA
:100F80002078C00602D42046FFF74EFA099828B10F
:100F9000D4E901219047206A401C20622078C006D5
:100FA00022D52046FFF740FA1EE0002E04DBB345B1
:100FB00002DD01A8805D00E03020D4E901219047E6
:100FC000206A401C2062761CAAF101005FEA000A38
:100FD0000AD100F06DF9C0680168405CD4E90121D4
:100FE0009047206A401C2062281EA5F10105DCDC28
:100FF00007E0D4E9012118F8010B9047206A401C52
:101000002062381EA7F10107F3DC2046FFF722FA21
:10101000032011B043E6000001694A1C0261087810
:10102000704700B58FB0CDE9013100210591054928
:101030007944CDE9031011466846FFF7CBFA0FB0AB
:1010400000BD0000E5FFFFFF0A6802F8010B0A601F
:101050007047D1E900239A4202D2531C0B601070F2
:10106000704710B5436913B1AFF3008001E0FFF79B
:1010700002FA012010BD127800F124010A7000224A
:101080004A700122EDE711684FF0FF32E9E70000F6
:101090002DE9FF5F15468A460446DFF8AC80F84428
:1010A0000027D8E900103E46CDE9001010E03AF8DC
:1010B00016106A4602A800F073FA411C07D0217886
:1010C000890603D5E269391891420DD80744761C88
:1010D0002078800602D5E069B84205DDAE42E6DB45
:1010E0003AF816000028E2D1A069C01BA061204692
:1010F000FFF79AF9D8E90010CDE90010002017E0B9
:101100003AF818106A4602A800F04AFAB0F1FF3F18
:1011100081460BD000250DF1080B05E0D4E9012133
:101120001BF8050090476D1C4D45F7D308F10100F1
:10113000B0428046E4DB206A384420622046FFF754
:1011400089F9BDE8FF9F0000DE9800002DE9F0411D
:101150008046D21D22F007020025D2E90002F529BF
:1011600015A614D0011E72F1000106DA0023D0EB9F
:10117000030063EB020211A608E0D8F800108B0709
:1011800001D50FA602E0490701D50EA6012511469B
:10119000002408F1240704E000F0A8F830323A55A2
:1011A000641C50EA0102F7D12B46324621464046E4
:1011B000BDE8F041FFF7B5BC000000002D000000C5
:1011C0002B0000002000000030B4002100F12404B6
:1011D00008E002F00705D208303542EA4372DB0826
:1011E0006554491C52EA0305F3D10468002310A298
:1011F000250708D504F020040C4304D0C46901235A
:101200000CA2641EC46130BCFFF78BBC10B5044651
:1012100021461068FFF77CFC02462046BDE81040DE
:101220000023D1E7D21D22F00701D1E90023CBE74B
:1012300000000000300000002DE9F04791460F4605
:1012400080460446002614F8015B2DB1FFF7EEFB43
:101250000068405DC007F6D12B2D02D02D2D18D08F
:10126000641E4A463946204600F0DCF827B139684A
:10127000A14201D1C7F800804FF0020471050BD5DF
:101280004042002803DDFFF7DDFB0460A007BDE856
:10129000F08746F48066E4E70028F8DAFFF7D2FB2F
:1012A00004606FF00040F2E700487047B84B002040
:1012B00000487047D84B0020034640688C46002801
:1012C00018BF88423CBF03464068F8D318681844EA
:1012D000884207D00CF1030020F00700001D411ADE
:1012E000521A0146081D0A60FFF739B830B5B0F14F
:1012F0000A024FEA900E71F100034EEA817EB0EBD4
:101300000E0061EB91014FEA101E4EEA017E10EBD8
:101310000E0041EB11114FEA102E4EEA016E10EB58
:101320000E0041EB11214FEA104E4EEA014E10EB38
:101330000E0041EB1141401841F100014FEAD0008D
:1013400040EA41704FEAD10110EB80054FEA810479
:1013500044EA907444EB01046D1944EB0404521BFD
:10136000A3414FF0000348BF0A3200D530BD401CF6
:1013700041F1000130BD00002DE9F0411F46044657
:1013800003260168072A01F4006004DB08B116A5F2
:1013900005E016A503E008B115A500E015A521F0AC
:1013A00010002060A069C01EA0610FB1401EA061A6
:1013B0002046FFF739F84FB1D4E90121384690476C
:1013C000206A401C2062C01C206206E0206AFAE706
:1013D000D4E9012115F8010B9047761EF8D220467A
:1013E000FFF738F8BDE8F0814E414E006E616E00A7
:1013F000494E4600696E660010B5436913B1AFF3FC
:10140000008001E0FFF744FE012010BD128800F1CA
:10141000240182840022C2840122EDE711684FF08A
:10142000FF32E9E72DE9F05F824615468B4600273B
:101430000AF10104B9460078302801D09DB113E0CB
:1014400014F8010B0127782803D0582801D045B1A2
:101450000AE00DB1102D07D1002714F8010B10255B
:1014600002E0082500E00A250026B0460EE005FB54
:10147000080005FB06F101271FFA80F801EB104672
:10148000B6F5803F00D3B94614F8010B294600F0A9
:10149000D4F80028EBDABBF1000F05D00FB1641EC1
:1014A00000E05446CBF80040B9F1000F06D0FFF73A
:1014B000C9FA02210160C81EBDE8F09F48EA064053
:1014C000FAE700002DE9F047814616468AB0334816
:1014D00078440DC88DE80D0030487844801C03AC7A
:1014E0000DC884E80D0041F69B300844372190FB7D
:1014F000F1F290FBF1F5A5F1800501FB12041B3C14
:1015000002D56442012000E00020DFF890A0804670
:101510000027FA44AAF1BE0A0DE0E00709D03246DE
:10152000684607EB47010AEB810100F0B2FB8DE84A
:10153000070064107F1C002CEFD1184F7F44AC3F94
:1015400018E0E80714D007EB04100DF1180A90E832
:101550000E008AE80E00C068F04201D19819089088
:10156000324606A903A800F094FB03AB83E807000A
:101570006D10641C002DE4D132466946B8F1000FAD
:1015800003A802D000F071FB01E000F082FBC9E982
:101590000001C9F808200AB0BDE8F08738950000BE
:1015A00070B516460C460546FFF740FA036893F8F7
:1015B0000101012806D0FF2C0FD8185D68B1012069
:1015C0002C7070BDD3F807013246214603F2071391
:1015D00003442846BDE8704018474FF0FF3070BD07
:1015E00010B500F043F8BDE8104000F03AB870477D
:1015F0007546FFF759FEAE4605006946534620F092
:101600000700854618B020B5FEF768FEBDE820400B
:101610004FF000064FF000074FF000084FF0000BAE
:1016200021F00701AC46ACE8C009ACE8C009ACE861
:10163000C009ACE8C0098D4670473A2800D230385E
:1016400020F02002412A01D3A2F13700884201D3C1
:101650004FF0FF3070470446AFF300802046FEF79E
:1016600028FE002801D000F069B8704710B50128A5
:1016700005D0002103A000F067F8012010BD09A1EA
:10168000F8E7000053494752544D454D3A204F75F5
:1016900074206F662068656170206D656D6F72796A
:1016A000000000003A2048656170206D656D6F7222
:1016B0007920636F72727570746564004FF0013C3D
:1016C00050F8042B51F8043B9A4221D1A2EB0C03B1
:1016D000934313EACC1317D150F8042B51F8043B71
:1016E0009A4215D1A2EB0C03934313EACC130BD10E
:1016F00050F8042B51F8043B9A4209D1A2EB0C0399
:10170000934313EACC13DBD04FF00000704700BFC7
:10171000D01A01BAB1FA81F101F0180122FA01F0F0
:10172000CB40C1F12001DBB2C0B2C01A2CFA01F3E8
:10173000D11A914311EAC311E6D17047014918202B
:10174000ABBEFEE72600020070B505460C460A2037
:1017500000E06D1C00F011F835B128780028F8D1B0
:1017600002E0641C00F009F814B120780028F8D1D8
:10177000BDE870400A20AFF3008008B569468DF8D7
:1017800000000320ABBE08BD5FEA400C08BF91F02B
:10179000000F4FEA8C234FEAC12243EA51514FEA2E
:1017A0001C5018BF00F5F0404FEA300018BF41F060
:1017B00000415FEA6C5C00F02980BCF1FF3F08BF8C
:1017C00040F080407047130C06BF12044FF0100C1D
:1017D0004FF0000C130E04BF12020CF1080C130F93
:1017E00004BF12010CF1040C930F04BF92000CF122
:1017F000020CD30F04BF52000CF1010C11464FF044
:101800000002A0F11F00A0EB0C00704711F0004F88
:1018100008BF704731F000413FF4D5AF0B0C06BF55
:1018200009044FF0100C4FF0000C0B0E04BF09021E
:101830000CF1080C0B0F04BF09010CF1040C8B0F09
:1018400004BF89000CF1020CCB0F04BF49000CF15E
:10185000010CCCF12003A0EB0C0022FA03F302FAF6
:101860000CF241EA030100F10100704720F07F4CC7
:1018700080EA030023F07F47ACEB070303F57C53BA
:1018800000F0004003F1FF032DE980494FEA154BBA
:1018900009B44FEA144325EA0B4E24EA03480FF239
:1018A000042606EB132749083E785FEA320203FB61
:1018B0000667C7F5000707FB06F64FEA54374FEAFD
:1018C000D64606F1020607FB066CCCF1005C4FEA37
:1018D0001C472CEA074C07FB06F40CFB06F504EB4F
:1018E00015464FEA961634BF00204FF000404FEAED
:1018F000D13706FB07FC4FEA1C4C0CFB0BF7D21B45
:1019000003FB0CF761EB07010CFB0EF7B0EB074094
:1019100072EB17420CFB08F734BFA2EB0742B2EBA5
:10192000074261EB17414FEA0C444FEA910706FB6F
:1019300007FC4FEA1C4C0CFB0BF7B0EBC74072EBFB
:10194000573203FB0CF734BFA2EBC742B2EBC742DE
:1019500061EB57310CFB0EF7B0EBC70072EB57721F
:101960000CFB08F734BFA2EBC702B2EBC70261EB76
:101970005771039F4FEA816141EA921104EBCC0455
:101980004FEAD1374FEA826206FB07FC42EA901227
:101990004FEA80604FEA1C4C0CFB0BF7D21B03FB99
:1019A0000CF761EB07010CFB0EF7B0EB074072EB95
:1019B00017420CFB08F734BFA2EB0742B2EB074219
:1019C00061EB17414FEA8C554FEA910704EB9C24D9
:1019D00006FB07FC4FEA1C4C0CFB0BF7B0EBC740B7
:1019E00072EB573203FB0CF734BFA2EBC742B2EBEA
:1019F000C74261EB57310CFB0EF7B0EBC70072EB3F
:101A000057720CFB08F734BFA2EBC702B2EBC70258
:101A100061EB577115EB4C254FEA816141EA921158
:101A20004FEA82624FEAD13742EA901206FB07FC86
:101A300044F100044FEA80604FEA1C4C0CFB0BF7AA
:101A4000D21B03FB0CF761EB07010CFB0EF7B0EBAD
:101A5000074072EB17420CFB08F734BFA2EB0742BA
:101A6000B2EB074261EB174115EB1C154FEA8131D0
:101A700041EA92414FEA823242EA90424FEA803094
:101A80004FEA0C7644F1000448EA03434EEA0B485F
:101A90004FF0000EB2EB080C71EB030724BF624657
:101AA00039464EEB0E0E4FF0000B001852414941E3
:101AB0004BEB0B0BB2EB080C71EB03077BF1000B4C
:101AC00024BF624639464EEB0E0E4FF0000B001855
:101AD000524149414BEB0B0BB2EB080C71EB030786
:101AE0007BF1000B24BF624639464EEB0E0E51EAE5
:101AF000020718BF46F0010616EB0E7655F10002FC
:101B000054F1000103D5BDE88901BDE80088BDE8B6
:101B10008901BDE80048B619524141EB0101A3F12A
:101B20000103704780807F7E7D7C7B7A7978777631
:101B300076757473727171706F6E6E6D6C6C6B6AAA
:101B40006A69686867666665646463636261616048
:101B5000605F5F5E5E5D5D5C5C5B5B5A5A595958C5
:101B6000585757565655555554545353525252512F
:101B7000515050504F4F4F4E4E4D4D4D4C4C4C4B85
:101B80004B4B4A4A4A4949494848484747474746CC
:101B90004646454545444444444343434342424208
:101BA00042414141002B26D4770021D01CB54FEA99
:101BB000370703B44FF010004FF010014FF0000052
:101BC0000FBCBDE810400BF1010BBBF1010F08BFCA
:101BD0005FEA170722BF12F1010211F101014FF074
:101BE000004143F1000300F0004043EA0000704769
:101BF000F9D35708DAE746EA064613F1400F4FEAF1
:101C000016461FDD13F1200FDFBF16430A460021E1
:101C100020335B42C8D0C3F1200746EA064602FAE9
:101C200007F74FEA164646EA0706C3F1200722FAED
:101C300003F201FA07F721FA03F14FF0000342EA39
:101C40000702B1E746EA020646EA06464FEA1646AA
:101C500046EA0106BCBF46EA0646360C4FF00003D2
:101C60004FF000024FF000019EE72DE9C048934677
:101C700030B491E8380007C831EA400C48BF34EA74
:101C8000430C03D5FFF7F2FDFFF78CFFF0BCBDE876
:101C900000882DE9C048934630B491E8380007C861
:101CA00010F0804F08BF13F0804F03D100F005F80B
:101CB000FFF778FFF0BCBDE8008820F07F4780EA9E
:101CC000030023F07F4C07EB0C03A3F57C5300F0DB
:101CD0000040A3F1FE0392F0000F00F0B38095F0F6
:101CE000000F00F077802DE901494FEA11404FEADB
:101CF000144621EA004800FB06FC24EA064708FBDC
:101D000006F607FB08F800FB07F718EB06484CEB54
:101D1000164C4FEA124B18EB07484FEA15464CEBAE
:101D2000174022EA0B4E0BFB06FC25EA06470EFB8A
:101D300006F607FB0EFE0BFB07F71EEB064E4CEB01
:101D4000164C4FF000061EEB074E4CEB174B18EBF2
:101D50000B0840F1000018EB0E0B58EB000840F1A7
:101D600000008F1A4FF000013CBFC943661B14BF2F
:101D7000B5EB040C00213CBFC943F61B4FEA1744E6
:101D80004EEA8E0E27EA04454FEA1C4704FB076221
:101D90002CEA074C05FB07F70CFB05F604FB0CFCD3
:101DA00016EB074642EB174216EB0C4642EB1C4281
:101DB0001BEB060658EB0202414146EA9E0601D59E
:101DC000BDE80189B619524141EB0101A3F10103BC
:101DD000BDE801894FEA14454FEA114724EA054658
:101DE00021EA074C05FB07F406FB07F70CFB06F19D
:101DF00005FB0CFC11EB074144EB17444FEA12477B
:101E000011EB0C4144EB1C4422EA074C05FB07F2A2
:101E100006FB07F70CFB06F605FB0CFC16EB07466A
:101E200042EB174216EB0C4642EB1C456A1854F184
:101E3000000148BF7047B619524141EB0101A3F1BF
:101E40000103704795F0000F37D04FEA11424FEA77
:101E5000144721EA024624EA074C02FB07F106FB7D
:101E600007F70CFB06F402FB0CFC14EB074441EBF8
:101E700017414FEA154714EB0C4441EB1C4125EA8E
:101E8000074C02FB07F506FB07F70CFB06F602FB07
:101E90000CFC16EB074645EB174516EB0C4645EBDD
:101EA0001C42121951F1000148BF7047B619524146
:101EB00041EB0101A3F1010370474FEA14454FEADA
:101EC000114724EA054621EA074C05FB07F106FB0A
:101ED00007F70CFB06F24FF0000605FB0CFC12EBBB
:101EE000074241EB174112EB0C4251EB1C4148BF3A
:101EF0007047921841EB0101A3F101037047000004
:101F0000F8B505460026002701F0C0FD1023082281
:101F10000021184601F094FF1023092200212020FF
:101F200001F08EFF10231A460021302001F088FFB7
:101F3000102311220021402001F082FF10230C22E7
:101F40000021502001F07CFF10230D220021602091
:101F500001F076FF01F0D0FEAFE1052F59D2DFE8A6
:101F600007F0035991FEFD00701CC6B21023122227
:101F70002021084601F064FF102313222021302085
:101F800001F05EFF102314222021402001F058FFB1
:101F9000102308222021502001F052FF01F0ACFE56
:101FA000C8A1CB4803F0ACFC02F09AFD04466CBB20
:101FB000012002F072FD044624BB102320221146AA
:101FC000104601F03DFF102321222021302001F096
:101FD00037FF102314222021402001F031FF10236D
:101FE00008222021502001F02BFF01F085FEB9A12D
:101FF000B74803F085FC00264FF4FA7003F022FE88
:10200000012706E0204603F0D9F802E0204603F05D
:10201000D5F848E1701CC6B21023172220210846CB
:1020200001F00EFF102313222021302001F008FFC1
:10203000102318222021402001F002FF1023192232
:102040002021502001F0FCFE01F056FEA4A1A04882
:1020500003F056FC02F044FD04467CB9022002F075
:102060001CFD044634B9A1A1994803F049FC00269F
:10207000022706E0204603F0A1F802E0204603F024
:102080009DF810E19DA1924803F03AFC02F08DFD0D
:102090000446FCB910231A222021084601F0D0FE84
:1020A00010231B222021302001F0CAFE10231C2205
:1020B0002021402001F0C4FE10231D2220215020A9
:1020C00001F0BEFE01F018FE90A1814803F018FC5B
:1020D000032769E010231A222021084601F0B0FEF0
:1020E00010231B222021302001F0AAFE10231E22E3
:1020F0002021402001F0A4FE10231F222021502087
:1021000001F09EFE102322223021202001F098FEB3
:10211000102323223021084601F092FE10231A4694
:102120003021402001F08CFE10231122302150205C
:1021300001F086FE01F0E0FD4FF47A7003F082FDBD
:1021400075A1634803F0DCFB204603F037F8002656
:1021500001F09CFC10230822002101E044E028E06B
:10216000122001F06DFE102309220021242001F02D
:1021700067FE10231A460021302001F061FE102373
:1021800011220021402001F05BFE10230C220021CF
:10219000502001F055FE10230D220021602001F097
:1021A0004FFE01F0A9FD00274FF4FA7003F04AFD3D
:1021B00079E05CA1464803F0A3FB4FF4FA7003F00A
:1021C00041FD02F00FFD04462CB95AA1404803F02E
:1021D00097FB042703E00027204602F0EFFF4FF4AF
:1021E0007A7003F02FFD5EE02A4657A1384803F0CD
:1021F00087FB2946022002F012FD0446002C4BD139
:1022000010231A462021084601F01AFE102311223D
:102210002021302001F014FE10231C222021402018
:1022200001F00EFE10231D222021502001F008FE97
:10223000102308223021184601F002FE1023092243
:102240003021202001F0FCFD1023492230210846D6
:1022500001F078FD102344223021382001F072FD76
:1022600010233A223021402001F06CFD102003237E
:102270002A4630210090462001F066FE01F03CFD28
:1022800033A1134803F03CFB40F6AC5003F0DAFCFA
:1022900001F094FE0120F8BD01F0F8FB0027204674
:1022A00002F08CFF00BF00BF4FF4C87003F0CAFCFF
:1022B0000A2E02D101F082FE00E04EE600BF0020AF
:1022C000E9E70000C7EBB0B4CAD6D6B800000000FA
:1022D00000380140D6B8CEC6D5FDB3A3000000003B
:1022E000D4D9B0B4D2BBB4CE00000000D4D9D2BB94
:1022F000B4CED6B8CEC6D5FDB3A30000B6D4B1C80F
:10230000C1BDB4CED6B8CEC600000000B6D4B1C8A8
:10231000B3C9B9A600000000B6D4B1C8CAA7B0DCE2
:1023200000000000C9FAB3C9D6B8CEC6C4A3B0E550
:1023300000000000C9FAB3C9D6B8CEC6C4A3B0E540
:10234000B3C9B9A60000000049443D25690000005A
:10235000C2BCC8EBD6B8CEC6B3C9B9A6000000004F
:1023600000BFFEE77047000010B580210348FEF76C
:1023700011FB00200249088010BD0000384B0020EE
:10238000FE1B002070B50546002400BF00F066F972
:1023900080B90DA10E48FEF70AFA044654B13A215D
:1023A0002046FEF7E8F9044614B1641C204670BDCF
:1023B0000020FCE7052003F045FC2800A5F1010101
:1023C0008DB2E3D100BFF2E74950442C0000000079
:1023D000384B002010B535A1364803F091FAFFF7CD
:1023E000C3FF35A1334803F08BFA03E04FF47A7052
:1023F00003F028FC32A133A000F0E2F80028F5D168
:1024000032A12C4803F07CFA29A133A000F0D8F8BF
:102410004FF4FA7003F016FC25A132A000F0D0F8BA
:102420004FF4FA7003F00EFC32A1224803F068FA70
:1024300003E04FF4FA7003F005FC21A130A000F096
:10244000BFF80028F5D132A11A4803F059FA03E089
:102450004FF4FA7003F0F6FB19A131A000F0B0F8C8
:102460000028F5D132A1134803F04AFA03E04FF4F3
:10247000FA7003F0E7FB31A132A000F0A1F80028C8
:10248000F5D138A10B4803F03BFA03E04FF4FA70A2
:1024900003F0D8FB37A139A000F092F80028F5D15D
:1024A00041A1044803F02CFA10BD00002B2B2B2B6C
:1024B0000000000000380140302E2041540D0A0079
:1024C0004F4B000041540D0A00000000312E2052F5
:1024D00053540D0A0000000041542B5253540D0A6E
:1024E0000000000041542B434950434C4F53450DCD
:1024F0000A000000322E2043574D4F44450D0A007C
:1025000041542B43574D4F44453D310D0A000000C7
:10251000332E2041542B4357444843500D0A0000AA
:1025200041542B4357444843503D312C310D0A0050
:10253000342E2043574A41500D0A0000474F542083
:102540004950000041542B43574A41503D22686F87
:102550006E6F72222C223132333435363738220DE9
:102560000A000000352E2043495053544152540D67
:102570000A000000434F4E4E4543540041542B4344
:10258000495053544152543D22544350222C22313D
:1025900031362E36322E3131362E313436222C3130
:1025A0003838330D0A000000362E2045535038329B
:1025B000363620496E6974204F4B0D0A000000002A
:1025C0002DE9F04104460D46C8262046FEF701F9E4
:1025D00087B23A4621460D4803F0B6F90FE000F005
:1025E0003DF848B929460A48FEF7E1F820B1FFF75F
:1025F000BBFE0020BDE8F0810A2003F023FB300081
:10260000A6F10101CEB2EAD10120F3E70044004077
:10261000384B002030B589B004460D46FFF7A4FEC4
:102620002A4608A101A8FDF7E9FE0AA101A8FFF7C3
:10263000C7FF20B92A462146074803F085F909B0AB
:1026400030BD000041542B43495053454E443D2575
:10265000640D0A003E000000004400400A48008863
:1026600008B901207047084800880849098888424D
:1026700003D1002004490880F4E703480088034997
:1026800008800120EEE70000FE1B0020001C002057
:10269000014621293ED2DFE801F011131517191B5D
:1026A0001D1F212325273D3D3D3D292B3D3D3D2D32
:1026B0003D3D2F313335373D3D393B0017A02BE0F1
:1026C0001BA029E01FA027E023A025E027A023E0EE
:1026D0002BA021E02FA01FE033A01DE037A01BE0BE
:1026E0003BA019E03FA017E043A000BF47A013E0C4
:1026F0004BA011E04FA00FE053A00DE057A00BE05E
:102700005BA009E05FA007E063A005E067A003E02D
:102710006BA001E06FA000BF00BF70472020202009
:102720002020204F4B2020202020202000000000CF
:1027300020CAFDBEDDB0FCBDD3CAD5B4EDCEF320BA
:1027400000000000B4ABB8D0C6F7C9CFC3BBD3D02C
:10275000CAD6D6B800000000C2BCC8EBD6B8CEC6F8
:10276000CDBCCFF1CAA7B0DC0000000020D6B8CEA7
:10277000C6CCABB8C9BBF2CCABB5AD2000000000F5
:1027800020D6B8CEC6CCABCAAABBF2CCABBAFD2021
:10279000000000002020D6B8CEC6CDBCCFF1CCAB17
:1027A000C2D220200000000020D6B8CEC6CCD8D59A
:1027B000F7B5E3CCABC9D920000000002020D6B883
:1027C000CEC6B2BBC6A5C5E4202020200000000074
:1027D00020C3BBD3D0CBD1CBF7B5BDD6B8CEC620A6
:1027E00000000000202020CCD8D5F7BACFB2A2CA72
:1027F000A7B0DC2000000000B5D8D6B7D0F2BAC52B
:10280000B3ACB3F6B7B6CEA7000000002020C9BE17
:10281000B3FDC4A3B0E5CAA7B0DC202000000000CF
:1028200020C7E5BFD5D6B8CEC6BFE2CAA7B0DC2068
:1028300000000000BBBAB3E5C7F8C4DACEDED3D0DF
:10284000D0A7CDBC0000000020B6C1D0B4464C419A
:102850005348B3F6B4ED202000000000202020CE25
:10286000B4B6A8D2E5B4EDCEF320202000000000DD
:102870002020CEDED0A7BCC4B4E6C6F7BAC520205F
:102880000000000020BCC4B4E6C6F7C4DAC8DDB45A
:10289000EDCEF3200000000020BCC7CAC2B1BED2FA
:1028A000B3C2EBB4EDCEF3200000000020202020C6
:1028B000D6B8CEC6BFE2C2FA202020200000000019
:1028C00020202020B5D8D6B7B4EDCEF3202020208C
:1028D0000000000020B7B5BBD8C8B7C8CFC2EBD343
:1028E000D0CEF320000000002DE9F0410246002583
:1028F0000026002000230024002791F803C00CF0DC
:102900000F0591F803C00CF0100CBCF1000F03D0C0
:1029100091F802C04CEA050591F800C0BCF1000F27
:1029200031D0146800202BE04FF0010C0CFA00F3BA
:10293000B1F800C00CEA03069E4220D183004FF09C
:102940000F0C0CFA03F7BC4305FA03FC4CEA040431
:1029500091F803C0BCF1280F06D14FF0010C0CFA1E
:1029600000FCC2F814C00AE091F803C0BCF1480FA3
:1029700005D14FF0010C0CFA00FCC2F810C0401C4D
:102980000828D1D31460B1F800C0BCF1FF0F34DDCA
:10299000546800202EE000F1080C4FF0010808FAFE
:1029A0000CF3B1F800C00CEA03069E4221D183006B
:1029B0004FF00F0C0CFA03F7BC4305FA03FC4CEA8A
:1029C000040491F803C0BCF1280F05D100F1080CF4
:1029D00008FA0CF8C2F8148091F803C0BCF1480F53
:1029E00007D100F1080C4FF0010808FA0CF8C2F802
:1029F0001080401C0828CED35460BDE8F081024608
:102A0000002093680B400BB1012000E000207047CC
:102A1000416170470161704700BFFEE710B500F0EB
:102A2000ECFF03F0EDF84FF4E13002F053FE4FF409
:102A3000E13002F0A7FE4FF4614002F0F9FEFFF72B
:102A4000C9FC00F09FF901F087F802F0B1F903F03A
:102A5000C9FD10BD10B500200F4908600F4800687F
:102A600020F070400D4908600846006840F0405072
:102A7000086000200A49C1F89C01022003F008F90F
:102A8000012005490860022003F002F900200449F2
:102A9000C1F8980110BD000098812142000C01404E
:102AA0000080214208B50121082002F0F9F8C02079
:102AB000ADF8000010208DF8030003208DF802000F
:102AC00069460448FFF710FFC0210248FFF7A2FF44
:102AD00008BD0000000C014010B500200F4908603F
:102AE0000F48006820F070400D49086008460068F3
:102AF00040F04050086001200A49C1F89C010220C2
:102B000003F0C6F8012005490860022003F0C0F870
:102B100000200449C1F8980110BD000098812142AD
:102B2000000C01400080214270B505460024174882
:102B3000006820F07040154908600846006840F0C1
:102B400000400860002616E00020114908600220BD
:102B500003F09EF801200F49C1F898016006040EA9
:102B60000B487C38006808B1601CC4B2012003F037
:102B70008FF8701CC6B2082EE6DB15B9FFF7ACFF64
:102B800001E0FFF767FF204670BD0000000C014028
:102B9000988121420080214270B5044615480068A2
:102BA00020F07040134908600846006840F040502B
:102BB0000860002010490860002517E0E0090E4970
:102BC000091D08606006040E022003F061F8012070
:102BD0000A49C1F89801022003F05AF8002006497A
:102BE0000860022003F054F8681CC5B2082DE5DB2C
:102BF00070BD0000000C01409881214200802142FC
:102C000010B50F48006820F070400D490860084674
:102C1000006840F04050086001200A4908600A49F5
:102C2000C1F89801042003F033F80020054908603A
:102C3000042003F02DF800200349C1F8980110BDCD
:102C4000000C01409C8121420080214210B50F48B8
:102C5000006820F070400D4908600846006840F0A8
:102C60004050086000200A4908600A49C1F89C01E8
:102C7000042003F00DF80120054908600549C1F85A
:102C80009C01042003F004F810BD0000000C01407A
:102C9000988121420080214210B500241448006828
:102CA00020F07040124908600846006840F000407B
:102CB000086001200F49086002F0EAFF01200E4978
:102CC000C1F8980102F0E4FF07E0601CC4B2FA2CDE
:102CD00003DDFFF7BBFF012010BD06488038006808
:102CE0000028F2D10349091F086000BFF4E7000083
:102CF000000C01409C812142008021427CB50546A8
:102D0000EF208DF8000001208DF801001A480068BE
:102D1000000E8DF8020018480068000C8DF80300C2
:102D200015480088000A8DF80400134800788DF8D3
:102D3000050007208DF8060000208DF807000F49D8
:102D4000088012E0012002F07DFF0C48008800F4AA
:102D5000004050B100200949088069460848FDF745
:102D600026FD04460CB120467CBD681E80B20500DD
:102D7000E8D100BFF8E70000F41B00204400002069
:102D8000382C002008B50121802001F089FF0720A0
:102D9000ADF8000048208DF8030069460148FFF7B0
:102DA000A3FD08BD001C014010B5044614B101206C
:102DB000224908702148007848B301212048FFF7D4
:102DC0001EFE48B102211E48FFF719FE20B1042162
:102DD0001B48FFF714FED0B90A2002F033FF002091
:102DE0001649087001211648FFF709FE08B90120AD
:102DF00010BD02211248FFF702FE08B90220F7E7D2
:102E000004210F48FFF7FBFDA8B90320F0E70121DB
:102E10000B48FFF7F4FD01280DD102210848FFF708
:102E2000EEFD012807D104210548FFF7E8FD012840
:102E300001D1024908700020DAE700005A000020A2
:102E4000001C014010B50446207B012802D12068F7
:102E5000FDF785FA002020606060A060207310BD3F
:102E60000246002301230DE002F07F000870D20922
:102E70002AB1087840F080000870491C01E018462B
:102E800070475B1C042BEFDD4FF0FF30F8E770B5A7
:102E900004460E460025206898B90120207330466C
:102EA000FDF72EFA20602068E0B100206060A66087
:102EB00003E00020216848556D1CA068A842F8D89E
:102EC00010E00220207303E00020216848556D1CAB
:102ED000A068A842F8D800206060A068B04201D283
:102EE0000020206070BD00002DE9FF5F07460D4601
:102EF00090463846FDF76DFC86B22846FDF769FC22
:102F00001FFA80FA4FF00009F01DFDF7F9F90446A9
:102F10001CB9012004B0BDE8F09FF11D2046FDF76B
:102F200039FD12A0016821608088A08032463946B0
:102F30002046FDF72AFC2846FDF74BFC834601207E
:102F4000002100915B462A46CDE902080191214605
:102F50000A2000F05FF910B94FF0000901E04FF0CE
:102F600001092046FDF7FBF94846D3E72463727355
:102F7000702F00002DE9FF4F83B082468B469146AB
:102F8000159C0025002002900F2701904846FDF770
:102F900020FC0FFA80F8B9F1000F03D1012007B02F
:102FA000BDE8F08F08F10200384487B2109808B1EC
:102FB00045F00205129878B145F004051298FDF726
:102FC00008FCC0B202901398FDF703FC014602987A
:102FD000001D0844384487B2119820B1012804D05C
:102FE000022808D104E000BF07E045F00C0504E02A
:102FF00045F0140501E00220D1E700BF149808B1A4
:1030000045F02405BAF1000F02D0BBF1000F01D149
:103010000320C4E745F0C0055046FDF7DAFB06463D
:103020005846FDF7D6FB3044001D384487B2394678
:103030002046FFF72CFF206808B90420AFE7394687
:103040002068FDF7A7FC10216268501C60602068B2
:103050008154D4E90023D118781FFFF701FF00B293
:1030600001900198002804DA2046FFF7EBFE0520C6
:1030700095E7616801980844606000216268501C0F
:1030800060602068815404216268501C6060206880
:1030900081544D216268501C606020688154512128
:1030A0006268501C60602068815454216268501C22
:1030B0006060206881546268501C606020688154A0
:1030C00004216268501C6060206881546168481C5B
:1030D0006060206845540698010A6268501C606070
:1030E000206881540698C1B26268501C60602068F4
:1030F0008154C8F307216268501C606020688154C5
:103100006268501C6060206800F80280D4E90012F8
:10311000881842464946FDF738FB606840446060C5
:1031200005F00400B8B30026139808B938A013902E
:103130001298FDF74EFB86B2310A6268501C60603F
:10314000206881546268501C606020688654D4E90D
:103150000012881832461299FDF717FB6068304458
:1031600060601398FDF735FB86B2310A6268501C27
:103170006060206881546268501C606020688654DA
:10318000D4E90012881832461399FDF7FEFA6068F8
:103190003044606000BF05F08000C8B15046FDF7C4
:1031A00018FB86B2310A6268501C60602068815446
:1031B0006268501C606020688654D4E90012881848
:1031C00032465146FDF7E1FA60683044606000BF66
:1031D00005F04000C8B15846FDF7FBFA86B2310A47
:1031E0006268501C6060206881546268501C606096
:1031F00020688654D4E90012881832465946FDF7F3
:10320000C4FA60683044606000BF0020C7E6000078
:10321000000000002DE9FF4F83B083461746994612
:10322000139C002500260020029001908046BBF1EF
:10323000000F03D1012007B0BDE8F08F00260AE09F
:103240000498805D232803D00498805D2B2801D149
:103250000220F0E7761C0498805D0028F0D148F049
:103260003008119808B148F0010806EB0900851CE8
:10327000109820B1012804D002280AD105E000BF2F
:1032800009E048F00208AD1C05E048F00408AD1C58
:1032900001E00320CFE700BF8FB33878022821D1A7
:1032A0004FF0000A00BF50460AF1010A385C7D2841
:1032B000F9D1AAF1030A0AF1070002900298A9EBDA
:1032C000000AE81CA0EB0A012046FFF7E0FD206899
:1032D00008B90420AFE7EA1CA2EB0A012068FDF759
:1032E00059FB19E0691D2046FFF7D1FD206808B998
:1032F0000420A0E7691D2068FDF74CFB0CE0FFE708
:10330000691D2046FFF7C3FD206808B9042092E735
:10331000691D2068FDF73EFB6168481C60602068FD
:1033200000F80180D4E9000281182846FFF798FDD3
:1033300001900198002804DA2046FFF783FD05205C
:1033400079E76168019808446060C6F30721626804
:10335000501C6060206881546268501C6060206866
:103360008654D4E90012881832460499FDF70DFA04
:10337000606830446060109860B14FEA1B21626859
:10338000501C6060206881546268501C6060206836
:1033900000F802B0C7B1387802280BD1D4E9001286
:1033A00088183946029AFDF77EFA61680298084447
:1033B000606009E0D4E9001288184A463946FDF7F2
:1033C00072FA606848446060002034E770B50546D2
:1033D0000C4604212046FFF75AFD206808B9012059
:1033E00070BD40216268501C6060206881540221D9
:1033F0006268501C60602068815429126268501C09
:103400006060206881546268501C60602068855448
:103410000020E5E770B505460C4604212046FFF77D
:1034200036FD206808B9012070BD70216268501C0B
:1034300060602068815402216268501C60602068CE
:10344000815429126268501C60602068815462684F
:10345000501C6060206885540020E5E770B5054683
:103460000C4604212046FFF712FD206808B9012010
:1034700070BD50216268501C606020688154022138
:103480006268501C60602068815429126268501C78
:103490006060206881546268501C606020688554B8
:1034A0000020E5E770B505460C4604212046FFF7ED
:1034B000EEFC206808B9012070BD62216268501CD2
:1034C00060602068815402216268501C606020683E
:1034D000815429126268501C6060206881546268BF
:1034E000501C6060206885540020E5E72DE9FF5FEF
:1034F0008046174699460E9C0026B246B3460025E4
:10350000B8F1000F03D1012004B0BDE8F09F0BE03B
:1035100057F8250008B90220F6E757F82500FDF70F
:1035200058F90644681CC5B24D45F1DB09EB49006A
:10353000801C00EB060A0AF105012046FFF7A7FCF4
:10354000206808B90320DFE782216268501C6060B0
:1035500020688154D4E9000281185046FFF780FCAE
:103560000FFA80FBBBF1000F04DA2046FFF76AFC7C
:103570000420C9E76068584460604FEA1821626817
:10358000501C6060206881546268501C6060206834
:1035900000F80280002524E057F82500FDF719F90E
:1035A0000646C6F307216268501C6060206881549B
:1035B0006268501C606020688654D4E90023D018EB
:1035C00057F825103246FDF7E0F860683044606037
:1035D0000198C1B26268501C606020688154681C08
:1035E000C5B24D45D8DB00208EE7F0B504460D4648
:1035F0002646012300201060002114E0775C07F0CC
:103600007F07106807FB03001060705C00F080000B
:1036100008B9481CF0BDDB01B3F5001F02D36FF001
:103620000100F7E7491CA942E8DB4FF0FF30F1E762
:103630002DE9F84380460C4615461E462F2108F119
:103640000600FDF798F807460020009017B9012002
:10365000BDE8F8837F1C6A46042108F10100FFF7EA
:10366000C4FF2520FCF74CFE2060206808B902202A
:10367000EEE725212068FDF78DF9242239462068E0
:10368000FDF711F9243700982C3830803188481C18
:10369000FCF736FE2860286820B92068FCF75FFE3A
:1036A0000320D5E73288511C2868FDF773F932886A
:1036B00039462868FDF7F7F80020C9E70146487841
:1036C000022801D001207047887810B1887801283D
:1036D00001D1C878F7E7FF20F5E700002DE9FC5F8E
:1036E00081460D4614461E46DDE90C8B99F8000014
:1036F00000F00F0A002001900AF008000090CAF3C1
:1037000041008BF8000001AA042109F10100FFF734
:103710006CFF4844471C0198022802D30AF00100BC
:1037200010B1FF20BDE8FC9F7878397840EA01208D
:1037300020802088801C0199884201D9FF20F1E770
:1037400054A1B81CFDF733F808B10F20EAE79BF845
:10375000000020B101283DD0022877D13BE000983D
:1037600008B1FF20DEE72188481CFCF7C9FD28606E
:10377000286808B9FF20D5E72288511C2868FDF782
:1037800009F92288B91C2868FDF78DF80198801E78
:103790002188401AA8F80000B8F80010481CFCF76F
:1037A000AFFD3060306820B92868FCF7D8FDFF20F5
:1037B000B8E7B8F80020511C3068FDF7EBF8B8F80E
:1037C0000020B4F800C0BB1C0CEB03013068FDF70F
:1037D0006AF84FE000BF2088801C0199884201D917
:1037E000FF209FE72088C01C395C2088801C385C43
:1037F00041EA00210E9801800E9808B9FF2091E758
:103800002188481CFCF77CFD2860286808B9FF2047
:1038100088E72288511C2868FDF7BCF82288B91C6B
:103820002868FDF740F80198001F2188401AA8F881
:103830000000B8F80010481CFCF762FD30603068EA
:1038400028B92868FCF78BFDFF206BE710E0B8F87B
:103850000020511C3068FDF79DF8B8F80020B4F83E
:1038600000C03B1D0CEB03013068FDF71CF801E0C4
:10387000FF2057E700BF2B212846FCF77CFF20B92B
:1038800023212846FCF777FF08B1FF204AE70020F4
:1038900048E7000024637265710000000146487823
:1038A000022801D001207047887820B9C8780A28FA
:1038B00001D10020F7E70120F5E70146487802280A
:1038C00001D001207047887820B9C8780A2801D132
:1038D0000020F7E70120F5E701464878022801D0EB
:1038E00001207047887820B9C8780A2801D10020C3
:1038F000F7E70120F5E702465078022801D00120C1
:1039000070479078B0EB112F05D1D078CBB29842A8
:1039100001D10020F4E70120F2E70000F8B50446E9
:10392000FF2720780511012D01DB0E2D01DD384622
:10393000F8BD032D24D1002000906A460421601CAC
:10394000FFF753FE2044461C0098022803D320783A
:1039500000F0010008B1FF20EAE77078317840EA12
:103960000120801C0099884201D9FF20E0E706A1D0
:10397000B01CFCF71CFF08B10F2700E0032700E094
:103980002F463846D4E700002463726571000000BA
:103990000146FF208A78A2B9CA78142A11D10A797F
:1039A00032B1012A05D0022A04D0802A06D103E0D0
:1039B00000BF00BF002003E0012001E0022000BFA3
:1039C00000BF7047014601208A781AB9CA781E2ABA
:1039D00000D100207047000000BF0549098801F0B0
:1039E00040010029F9D00249091D088070470000F4
:1039F000004C004000BFFEE7704710B54FF4A060D8
:103A000000F03AF810BD000070B5002100230F222D
:103A1000C47804B3154C246804F4E064C4F5E0648D
:103A2000210AC1F10403CA40447804FA03F18478FE
:103A30001440214309010E4C0678A155047804F086
:103A40001F050124AC4005786D11AD0005F1E0259E
:103A5000C5F8004109E0047804F01F050124AC40DA
:103A6000044D0678761145F8264070BD0CED00E057
:103A700000E400E080E100E002490143024A1160F5
:103A8000704700000000FA050CED00E070B500245E
:103A90000CE0002506E00020074901EBC5010855B0
:103AA000681CC5B2802DF6DB601CC4B2082CF0DBAC
:103AB00000F022F970BD0000582F002070B50B46B1
:103AC000CE1701EB5676C6F3C702CE1701EB56763A
:103AD000F610A1EBC606F4B20123A340DDB20E4BF3
:103AE00003EBC0039B5CDB430B4E06EBC006B354F9
:103AF000094B03EBC0039B5C2B43074E06EBC00650
:103B0000B354054B03EBC0039B5CDB43024E06EB57
:103B1000C006B35470BD0000582F002070B50A468F
:103B2000CE1701EB5676C6F3C703CE1701EB5676D8
:103B3000F610A1EBC606F4B20122A240D5B2054AA6
:103B400002EBC002D25C2A43024E06EBC006F254DE
:103B500070BD0000582F002008B501214FF4B0704F
:103B600001F09EF84FF48050ADF8000010208DF861
:103B7000030003208DF8020069465648FEF7B4FEA4
:103B80004FF480515348FEF745FF48F23200ADF83C
:103B9000000010208DF8030003208DF80200694614
:103BA0004D48FEF7A1FE48F232014B48FEF732FFC6
:103BB0004FF4A060ADF8000010208DF80300032042
:103BC0008DF8020069464548FEF78EFE4FF4A0616D
:103BD0004248FEF71FFF10213F48FEF719FFC8209B
:103BE00002F030F810213C48FEF714FF0021AE200F
:103BF00000F06EFA0021084600F06AFA0021102059
:103C000000F066FA0021402000F062FA00218120D5
:103C100000F05EFA0021CF2000F05AFA0021A12026
:103C200000F056FA0021C82000F052FA0021A62028
:103C300000F04EFA0021A82000F04AFA00213F20AF
:103C400000F046FA0021D32000F042FA0021084695
:103C500000F03EFA0021D52000F03AFA0021802041
:103C600000F036FA0021D92000F032FA0021F120CC
:103C700000F02EFA0021DA2000F02AFA00211220AA
:103C800000F026FA0021DB2000F022FA002140207B
:103C900000F01EFA0021202000F01AFA0021022074
:103CA00000F016FA00218D2000F012FA00211420F5
:103CB00000F00EFA0021A42000F00AFA0021A6204C
:103CC00000F006FA0021AF2000F002FAFFF7DEFE56
:103CD00008BD000000200140001401400018014010
:103CE00010B50246012000E050430B00A1F1010491
:103CF000E1B2F9D110BD000070B500241CE004F160
:103D0000B001C8B2002100F0E3F90021084600F03C
:103D1000DFF90021102000F0DBF9002508E0084958
:103D200001EBC501085D012100F0D2F9681CC5B2A4
:103D3000802DF4DB601CC4B2082CE0DB70BD0000F9
:103D4000582F00202DE9FF4F81B080460E461C46BB
:103D500000962046E31704EB5373DB1021464FEA2D
:103D6000E47C04EB5C7C4FEAEC0CA4EBCC0CBCF1E7
:103D7000000F02D04FF0010C01E04FF0000C634443
:103D8000224604EBD27C4FEA6C0C03FB0CF303F0ED
:103D9000FF0B03982038C7B2002547E00C2C07D151
:103DA00007EB4700234901EB800010F805A014E061
:103DB000102C05D1204800EB071010F805A00CE0EE
:103DC000182C07D107EBC7001C4901EB800010F845
:103DD00005A002E005B0BDE8F08F4FF000091FE03C
:103DE0000AF0800020B131464046FFF797FE03E01D
:103DF00031464046FFF762FE4FEA4A604FEA106ADA
:103E0000701CC6B20098301AA04205D1009E08F17D
:103E1000010000F0FF0806E009F1010000F0FF09D1
:103E2000B9F1080FDCDB00BF681CC5B25D45B5DB2E
:103E300000BFCFE7FC8F000870940008609A00086C
:103E40002DE9FF4F0746884691461C464FF0000B70
:103E50000297CDF804802046E11704EB5171C1F3BD
:103E6000C701009160E009FB04F0C11700EB51713C
:103E70000BEBE101CEB20BF1010000F0FF0B0025CE
:103E800050E0102C05D12C4800EB0610405D03904B
:103E90001BE0182C07D106EBC600284901EBC00037
:103EA000405D039011E0202C05D1254800EBC610A1
:103EB000405D039009E0402C05D1224800EB4620EC
:103EC000405D039001E0BDE8FF8F4FF0000A17E06E
:103ED000039800F0010020B141463846FFF71EFE6E
:103EE00003E041463846FFF7E9FD03984010039090
:103EF00008F1010000F0FF080AF1010000F0FF0ADC
:103F0000BAF1080FE4DB781CC7B20298381AA04255
:103F100004D1029F01980830C0B20190DDF80480FE
:103F2000681CC5B2A542ACDB0098411EC9B2009125
:103F3000002898D100BFC6E75B0000201B090020C5
:103F4000F3090020F30B00202DE9F04F06468A46C6
:103F500091461F46099C00252CE0781B401EC1B2EB
:103F60000A20FFF7BDFEB9FBF0F00A21B0FBF1F229
:103F700001FB1208B8F1000F0CD1A34604EBDB7172
:103F8000491001FB0561C8B2234630225146FFF7B4
:103F9000D9FE0DE0A34604EBDB71491001FB05617E
:103FA000C8B208F13001CAB223465146FFF7CAFE33
:103FB000681CC5B2BD42D0DBBDE8F08F08B5FFF785
:103FC00065FD1023002211461046FFF739FF10232C
:103FD000012200211846FFF733FF1023022200219F
:103FE0002020FFF72DFF1023032200213020FFF7B0
:103FF00027FF1023042200214020FFF721FF102378
:10400000052200215020FFF71BFF1023062200216C
:104010006020FFF715FF1023072200217020FFF713
:104020000FFF10230E2220210846FFF709FF10235F
:104030000F2220213020FFF703FF10230C22202124
:104040004020FFF7FDFE10230D2220215020FFF716
:10405000F7FE10232E2220216220FFF773FE10238B
:104060002E2220216620FFF76DFE10232E22202114
:104070006A20FFF767FE1023332230211846FFF72E
:10408000DFFE1023342230212020FFF7D9FE102339
:10409000692230213220FFF755FE1023642230219F
:1040A0003A20FFF74FFE10233A2230214620FFF737
:1040B00049FE10200323009004480288302150203C
:1040C000FFF742FFFFF718FE08BD000000000020C8
:1040D00070B504460E462EB14FF400411A48FEF763
:1040E00099FC04E04FF400411748FEF791FC0221CF
:1040F0001548FEF78DFC002519E04FF48051134858
:10410000FEF786FC04F0800020B120210E48FEF767
:1041100081FC03E020210C48FEF77AFC4FF480512B
:104120000A48FEF777FC6006040E681CC5B2082D2D
:10413000E3DB02210448FEF76DFC4FF40041024826
:10414000FEF768FC70BD0000001401400020014033
:1041500030B58BB000200790089009900A90012597
:1041600030A031A332A234A100903F4801F0C8FB37
:1041700007A8002102910391CDE9041000912B02C0
:1041800028A2019128A12AA0FEF7F4FE002842D11E
:10419000089A91B20798FEF73DFAFA20FEF7F2F876
:1041A0000446002C33D02046FFF7B8FB02282ED15E
:1041B0002046FFF783FA062823D2DFE800F0030940
:1041C0000E13181D29A1284801F09AFB00251DE0B7
:1041D0002BA1254801F094FB18E030A1224801F002
:1041E0008FFB13E036A1204801F08AFB0EE03CA1D2
:1041F0001D4801F085FB09E042A11B4801F080FB4E
:1042000004E04BA1184801F07BFB00BF00BF07A8EA
:10421000FEF718FE03E04DA1134801F071FB28469C
:104220000BB030BD3536310074657374000000008A
:1042300037373234370000004F6E654E65745F4487
:1042400065764C696E6B0D0A50524F49443A2025F1
:10425000732C09415549463A2025732C094445568B
:1042600049443A25730D0A000038014054697073BF
:104270003A09C1ACBDD3B3C9B9A60D0A000000000C
:104280005741524E3A09C1ACBDD3CAA7B0DCA3BA5C
:10429000D0ADD2E9B4EDCEF30D0A00005741524E35
:1042A0003A09C1ACBDD3CAA7B0DCA3BAB7C7B7A897
:1042B000B5C4636C69656E7469640D0A0000000022
:1042C0005741524E3A09C1ACBDD3CAA7B0DCA3BA1C
:1042D000B7FECEF1C6F7CAA7B0DC0D0A0000000099
:1042E0005741524E3A09C1ACBDD3CAA7B0DCA3BAFC
:1042F000D3C3BBA7C3FBBBF2C3DCC2EBB4EDCEF3AD
:104300000D0A00005741524E3A09C1ACBDD3CAA7AD
:10431000B0DCA3BAB7C7B7A8C1B4BDD328B1C8C869
:10432000E7746F6B656EB7C7B7A8290D0A00000068
:104330004552523A09C1ACBDD3CAA7B0DCA3BACE2C
:10434000B4D6AAB4EDCEF30D0A0000005741524E88
:104350003A094D5154545F5061636B6574436F6EFD
:104360006E656374204661696C65640D0A00000027
:1043700070B588B005460C46002004900590069064
:10438000079023462A4610A1174801F0B9FA2046A3
:10439000FCF71FFA064604A80121002200923346CA
:1043A000CDE901210390224629460A20FEF732FF7B
:1043B00038B9059A91B20498FEF72CF904A8FEF7D3
:1043C00041FD08B070BD00005075626C69736820D3
:1043D000546F7069633A2025732C204D73673A201F
:1043E00025730D0A00000000003801402DE9F04F50
:1043F000AFB0824600202B902C902D902E902A90CA
:104400002990289027900027269000250024834695
:104410005046FFF783FA0746F81E0D287BD2DFE8E7
:1044200000F02BD4DDFBF97AF87AF77A7A7A070074
:1044300027AB2AAA29A95046FFF7FAF80546D5B9AD
:10444000BDF89C000090AEA1B648DDE9292301F03B
:1044500057FA2BAADDE92901FEF746FD58B9B2A1AA
:10446000B04801F04DFA2C9A91B22B98FEF7D2F891
:104470002BA8FEF7E7FC13E1B14826A927AA2AAB2F
:10448000CDE90021029028AA29A95046FFF726F974
:104490000546002D6FD1BDF89C002A99CDE900108A
:1044A000BDF8A030A7A19F48299A01F029FA2A98BF
:1044B00001F046FB8046B8F1000F08D101F01AFB6D
:1044C0000246AFA10290974801F01AFA49E0B1A163
:1044D000404601F015FB0646B149098870698842DB
:1044E0003FD1B0A1404601F00BFB0646B08A1FFA4F
:1044F00080F94A46AEA18B4801F002FA4846FDF722
:10450000FFFCC0B1AFA1874801F0FAF9B1A185481D
:1045100001F0F6F900E0C0E0B3A3A1480288B5A11C
:1045200003A8FBF76BFF03A9BA480068FFF720FF59
:10453000FDF71AFF15E0B8A17A4801F0E1F9A5A14D
:10454000784801F0DDF9B8A395480288A9A103A82D
:10455000FBF754FF03A9AF480068FFF709FFFDF719
:1045600003FF404601F09AFA9DF89800012803D015
:10457000022827D113E027E02BA971480088FEF715
:1045800025FF58B9ABA1674801F0BAF92C9A91B24E
:104590002B98FEF73FF82BA8FEF754FC13E02BA94D
:1045A00067480088FEF75AFF58B9A8A15D4801F096
:1045B000A7F92C9A91B22B98FEF72CF82BA8FEF7AE
:1045C00041FC00E000BF00BF6AE05046FFF766F91B
:1045D00018B9A4A1534801F093F961E05046FFF7E0
:1045E0007BF9A0B9A7A14F4801F08AF92BA90A20AD
:1045F000FEF758FF58B9A9A14A4801F081F92C9A51
:1046000091B22B98FEF706F82BA8FEF71BFC47E0AB
:1046100035E026E01CE0FFE7494801885046FFF7F7
:104620006AF9A0B9A3A13F4801F06AF92BA90A20B1
:10463000FEF7F0FE58B9A5A13A4801F061F92C9AAD
:1046400091B22B98FDF7E6FF2BA8FEF7FBFB27E0C6
:104650005046FFF732F918B9A3A1324801F050F9DA
:104660001EE05046FFF794F920B9A5A12D4801F0AE
:1046700047F903E0A9A12B4801F042F910E05046A8
:10468000FFF7A0F920B9ACA1264801F039F903E001
:10469000B0A1244801F034F902E04FF0FF3500BF2B
:1046A00000BFFDF761FE681C10B92FB0BDE8F08FA8
:1046B0007D212A98FCF75FF80446A4B1681C90B1EC
:1046C000641C06E014F8012B58460BF1010B23A9DA
:1046D0000A542078302802DB20783928F2DD23A81C
:1046E000FCF73CF883460F2F01D0032F05D1299802
:1046F000FBF735FE2A98FBF732FE00BFD5E7000036
:10470000636D6469643A2025732C207265713A20C8
:1047100025732C207265715F6C656E3A2025640DDF
:104720000A00000000380140546970733A0953656B
:104730006E6420436D64526573700D0A00000000C2
:10474000081C0020746F7069633A2025732C207454
:104750006F7069635F6C656E3A2025642C20706110
:10476000796C6F61643A2025732C207061796C6FCD
:1047700061645F6C656E3A2025640D0A00000000DC
:104780006572726F72206265666F72653A5B25733F
:104790005D0A00006164646D656D62657200000011
:1047A000000000206D656D6265726669640000003E
:1047B00061646471756573742C6669643D25640A6F
:1047C00000000000D6B8CEC6C2BCC8EBB3C9B9A6BB
:1047D000000000004F6E654E65745F5075626C6935
:1047E00073680D0A0000000061646473756365738B
:1047F000730000007B22646576696365223A256454
:104800002C2270726F746F636F6C223A22257322B0
:104810007D000000041C0020D6B8CEC6C2BCC8EB88
:10482000CAA7B0DC000000006164646572726F7238
:1048300000000000546970733A0953656E6420509B
:1048400075626C69736841636B0D0A00546970731B
:104850003A0953656E64205075626C6973685265DD
:10486000630D0A00546970733A094D515454205035
:1048700075626C6973682053656E64204F4B0D0A36
:1048800000000000546970733A0952657620507533
:10489000626C6973685265630D0A00005469707335
:1048A0003A0953656E64205075626C69736852658D
:1048B0006C0D0A00546970733A0952657620507580
:1048C000626C69736852656C0D0A000054697073FC
:1048D0003A0953656E64205075626C697368436F62
:1048E0006D700D0A00000000546970733A0952653A
:1048F00076205075626C697368436F6D700D0A00A5
:10490000546970733A094D5154542053756273635E
:1049100072696265204F4B0D0A0000005469707384
:104920003A094D515454205375627363726962653C
:10493000204572720D0A0000546970733A094D5196
:10494000545420556E537562736372696265204FCB
:104950004B0D0A00546970733A094D515454205557
:104960006E537562736372696265204572720D0AD7
:104970000000000070B586B004460D4600260020F9
:10498000029003900490059007E054F826200DA1B2
:10499000124800F0B5FF701CC6B2AE42F5DB02A8AB
:1049A0002B462246002100901420FEF79FFD38B9C7
:1049B000039A91B20298FDF72DFE02A8FEF742FA83
:1049C00006B070BD53756273637269626520546F7F
:1049D0007069633A2025730D0A0000000038014019
:1049E000FCB502462F2300BF00208DF805008DF88E
:1049F00004008DF803008DF8020001208DF80100FD
:104A000007208DF800002F2300250521002409E050
:104A1000581EC3B2072C02DA601CC4B202E00024A4
:104A2000481EC1B2505C80272741384008B9002990
:104A3000EEDCA3F10800C5B21EE0052118E0481E17
:104A40001DF8000000F0800018B1002901DD0126EA
:104A500000E000261DF801004006000E0DF80100E0
:104A60001DF801003044C0B20DF80100481EC1B26B
:104A7000FF29E4DB681EC5B2002DDED1002106E06F
:104A8000505C1DF8017078405054481CC1B2052993
:104A9000F6DD082BA8DC1078FCBD2DE9F0410546B9
:104AA00000F0FFFA00F0D4FA012000F0F4FA04203C
:104AB00000F0FFFA022000F006FB2846FEF78CFF0C
:104AC000EF1D384600F0DEFA4FF4FA60FEF716F9F3
:104AD00006460EB1747A00E0FF242046BDE8F0815E
:104AE00070B500F0DEFA00F0B3FA012000F0D3FA5E
:104AF000032000F0DEFA012000F0E5FA052630463A
:104B000000F0C0FA4FF4FA60FEF7F8F805460DB170
:104B10006C7A00E0FF24204670BD2DE9F047814605
:104B20000D4616461F4600F0BCFA00F091FA01202F
:104B300000F0B1FA082000F0BCFA1B2000F0C3FA24
:104B40004846FEF749FF2812FEF746FFE8B2FEF797
:104B500043FF3012FEF740FFF0B2FEF73DFF09F1D0
:104B6000240000EB2520E9B2084400EB2620F1B236
:104B700000EB010A504600F085FA4FF4FA60FEF7A8
:104B8000BDF8044664B194F80980E07AA17A00EB9C
:104B900001203880607B217B00EB0120788001E0E0
:104BA0004FF0FF084046BDE8F08770B500F079FA95
:104BB00000F04EFA012000F06EFA032000F079FABE
:104BC000032000F080FA0726304600F05BFA4FF42D
:104BD000FA60FEF793F805460DB16C7A00E0FF2409
:104BE000204670BD70B500F05CFA00F031FA01208B
:104BF00000F051FA032000F05CFA052000F063FA9F
:104C00000926304600F03EFA4FF4FA60FEF776F8D7
:104C100005460DB16C7A00E0FF24204670BD2DE9F9
:104C2000F04106460C4600F03CFA00F011FA012073
:104C300000F031FA062000F03CFA062000F043FABA
:104C40003046FEF7C9FE2012FEF7C6FEE0B2FEF7C0
:104C5000C3FE06F10D0000EB2420E1B200EB0108D9
:104C6000404600F00FFA4FF4FA60FEF747F80746A7
:104C70000FB17D7A00E0FF252846BDE8F08170473E
:104C800029B1064AD2690243044BDA6104E0034ABF
:104C9000D2698243014BDA61704700000010024084
:104CA00029B1064A92690243044B9A6104E0034A1F
:104CB00092698243014B9A617047000000100240E4
:104CC00030B500210022002400232D4D6D6805F031
:104CD0000C0121B1042905D0082923D105E0294D73
:104CE000056022E0274D05601FE0254D6D6805F445
:104CF0007012234D6D6805F48034022505EB924255
:104D00001CB9214D554305600BE01D4D6D6805F440
:104D100000351DB11C4D5543056002E0194D55434A
:104D2000056002E0174D056000BF00BF144D6D68BF
:104D300005F0F0010909154D6B5C0568DD40456023
:104D40000F4D6D6805F4E061090A104D6B5C456814
:104D5000DD4085600A4D6D6805F46051C90A0B4D50
:104D60006B5C4568DD40C560054D6D6805F44041EC
:104D7000890B074D6B5CC568B5FBF3F5056130BD6C
:104D80000010024000127A0000093D004600002099
:104D900056000020002107E0002201E0531C9AB2D7
:104DA0008242FBDB4B1C99B20429F5DB7047000003
:104DB00008B501210820FFF773FF4FF44060ADF8FC
:104DC000000014208DF8030003208DF802006946CE
:104DD0000548FDF789FD4FF48060034910310860F4
:104DE0004000086008BD0000000C01402DE9FC4FA8
:104DF00004460D464FF00009CA46CB466006040E35
:104E000000BF00BF00F002F9ABF1010000F0FF0BA2
:104E1000BBF1000F00D136E000F0D6F8204600F0DC
:104E2000BBF800B1EEE7284600F0B6F800B1E9E7BC
:104E300000F0CAF8611CC8B200F0AEF800B1E1E7BA
:104E4000002000F06DF88146002000F069F88246ED
:104E5000012000F065F8804600F0D8F88DF8054094
:104E60008DF80450601CC0B28DF803008DF80290DC
:104E70008DF801A000208DF800006846FFF7B0FD16
:104E800006464645BDD100BF49EA0A273846BDE877
:104E9000FC8F00002DE9F05F07210020FFF7A6FF3F
:104EA000834603F0BDFB8046084A094B03F008FC2B
:104EB00006464FF06632074B03F028FE044603F027
:104EC00023F982465046BDE8F09F00007B14AE47B0
:104ED000E17A943F6612714010B54FF400600F49BB
:104EE00008600220FFF756FF4FF480600B4908600E
:104EF0000520FFF74FFF09480838006800F40060FC
:104F000008B1012400E000244FF480600349091D2A
:104F100008600320FFF73EFF204610BD100C014043
:104F200070B5064608250DE0FFF7D6FF20B16006F4
:104F3000040E44F0010403E06006040E04F0FE04D5
:104F4000681EC5B2002DEFD1304600F003F82046B0
:104F500070BD000010B5044624B94FF400600D493F
:104F6000086004E04FF400600A49091F086002204D
:104F7000FFF710FF4FF480600649091F0860062004
:104F8000FFF708FF4FF48060024908600320FFF735
:104F900001FF10BD140C0140F0B5044608250CE0DB
:104FA00004F0800008B1012600E000263046FFF73B
:104FB000D1FF6006040E681EC5B2002DF0D1FFF7C8
:104FC0008BFF07463846F0BD00B54FF400600E4930
:104FD00008600520FFF7DEFE4FF480600A49086094
:104FE0000520FFF7D7FE4FF400600749091D086050
:104FF0000520FFF7CFFE4FF480600349091D0860CC
:105000000520FFF7C7FE00BD100C014000B54FF4AE
:1050100080600D4908600520FFF7BCFE4FF400607A
:10502000094908600520FFF7B5FE4FF48060064986
:10503000091F08600520FFF7ADFE4FF4006002492C
:10504000091F086000BD0000140C014070470000FB
:1050500010B50B490968080EFEF7BEFC0848006849
:10506000C0F30740FEF7B8FC05480088C0F30720EE
:10507000FEF7B2FC02490878FEF7AEFC10BD000056
:10508000F41B002010B504462012FEF7A5FCE0B288
:10509000FEF7A2FC10BD10B504462046FEF79CFCAE
:1050A00010BD10B5EF20FEF797FC0120FEF794FC31
:1050B00010BD10B50446C4F30720FEF78DFCE0B226
:1050C000FEF78AFC10BD10B504462046FEF784FCAE
:1050D00010BD10B500F002F810BD00000CB50020A6
:1050E000019000903348006840F4803031490860F6
:1050F00000BF3048006800F4003000900198401C68
:105100000190009818B90198B0F5A06FF1D1294825
:10511000006800F4003010B10120009001E0002090
:1051200000900098012843D12348006840F0100007
:10513000214908600846006820F00300086008461E
:10514000006840F0020008601A4840681949486049
:105150000846406848600846406840F480604860FF
:105160000846406820F47C1048600846406840F4D7
:10517000E81048600846006840F08070086000BF92
:105180000C48006800F000700028F9D00948406819
:1051900020F00300074948600846406840F00200DC
:1051A000486000BF0348406800F00C000828F9D1AF
:1051B0000CBD0000001002400020024070B5044603
:1051C0002046FDF765FA05462946024800F098FB9F
:1051D00070BD000000380140042808D14FF0E021E4
:1051E000096941F004014FF0E022116107E04FF03E
:1051F000E021096921F004014FF0E02211617047BC
:105200007047000010B51348006840F001001149D4
:10521000086008464068104908400E494860084642
:1052200000680E4908400B4908600846006820F4F1
:10523000802008600846406820F4FE0048604FF473
:105240001F008860FFF745FF4FF0006004490860C9
:1052500010BD0000001002400000FFF8FFFFF6FE46
:1052600008ED00E010B50121880700F06EF818B1D4
:105270000121880700F05AF810BD000010B5012187
:10528000044800F062F818B10121024800F04EF81D
:1052900010BD00000004004010B50121094800F0D5
:1052A00054F868B10848008840F400400649088076
:1052B0000121044800F03AF80021024800F039F8D2
:1052C00010BD000000140040440000207FB50546DA
:1052D0000C4601212020FFF7D3FCADF80450ADF8B7
:1052E00000400020ADF80600ADF8020069460E4807
:1052F00000F048F8012211460B4800F037F8012170
:10530000094800F016F837208DF80C0000208DF8C1
:105310000D0002208DF80E0001208DF80F0003A86B
:10532000FEF772FB7FBD000000140040CA430282FA
:10533000704721B1028842F00102028004E0028835
:105340004FF6FE731A400280704730B502460020C7
:1053500000230024158A05EA0103958905EA010462
:1053600013B10CB1012000E0002030BD1AB18389D7
:105370000B43838102E083898B438381704781845F
:1053800070470000002202881D4B98420ED01D4B32
:1053900098420BD0B0F1804F08D01B4B984205D0FB
:1053A0001A4B984202D01A4B984204D14FF68F7391
:1053B0001A404B881A43174B984207D0164B984215
:1053C00004D04FF6FF431A40CB881A4302808B88E3
:1053D00083850B8803850A4B98420BD0094B984272
:1053E00008D00E4B984205D00D4B984202D00D4B81
:1053F000984201D10B7A0386012383827047000013
:10540000002C01400034014000040040000800402E
:10541000000C00400010004000140040004001401B
:10542000004401400048014010B540F225511648A3
:1054300000F088F8F8B1144800F040F9C4B21348FD
:10544000008800F40040B0B910480088B0F5C87F6B
:1054500012DA00210E48FFF792FF0C48008818B9B5
:1054600001210B48FFF765FF08490888411C074ADE
:10547000118008490C5405E00448008840F40040BD
:105480000249088010BD0000004C0040440000208C
:1054900000140040382C002010B540F2255104487B
:1054A00000F050F818B12021014800F029F810BD93
:1054B0000038014010B540F225510E4800F042F886
:1054C000B0B10D480088802802D300200A49088026
:1054D0000848001D0088C1B2074802880088401CA7
:1054E000054B1880054881542021024800F008F837
:1054F00010BD000000440040FE1B0020384B00207F
:1055000001F40072B2F5007F00D100BFCA430280EF
:10551000704721B1828942F40052828104E082897D
:105520004DF6FF731A408281704702460020B1F5A4
:10553000007F00D100BF13880B400BB1012000E0B9
:105540000020704770B5024600240023002500208B
:1055500040F66A16B14200D100BFC1F3421501F016
:105560001F03012606FA03F3012D02D19689334069
:1055700006E0022D02D1168A334001E0968A3340BC
:105580000C12012606FA04F41688344013B10CB14B
:10559000012000E0002070BDF0B503460024002685
:1055A0000025002040F66A17B94200D100BF184616
:1055B000C1F3421401F01F06012707FA06F5012C7A
:1055C00001D10C3004E0022C01D1103000E0143085
:1055D0001AB107682F43076002E00768AF4307600E
:1055E000F0BD00002DE9F04786B005460E460024C8
:1055F000A24600BFA1460027B08900B100BF2F46D8
:105600002C8A4CF6FF700440F08804432C82AC894D
:105610004EF6F3100440B08831890843718908437D
:105620000443AC81AC8A4FF6FF400440B089044388
:10563000AC8201A8FFF744FB1F48874202D1DDF886
:1056400010A001E0DDF80CA0A88900F4004040B1F2
:105650000AEBCA0000EB0A1031684900B0FBF1F810
:1056600007E00AEBCA0000EB0A1031688900B0FBC2
:10567000F1F86420B8FBF0F004012009642101FB7B
:105680001089A88900F4004040B1322000EBC90025
:10569000B0FBF1F000F00700044308E0322000EB1B
:1056A00009106421B0FBF1F000F00F0004432C81DD
:1056B00006B0BDE8F0870000003801400146888848
:1056C000C0F308007047C1F308028280704700BF32
:1056D000FEE7000010B586B0044601210420FFF764
:1056E000DFFA01218803FFF7DBFA18208DF8170095
:1056F0004FF40070ADF8140003208DF8160005A9D2
:105700001E48FDF7F1F804208DF817000002ADF8EF
:10571000140003208DF8160005A91848FDF7E4F8D9
:1057200001940020ADF810000C20ADF80E00002010
:10573000ADF80C00ADF80A00ADF8080001A910485A
:10574000FFF750FF01210E48FFF7E3FE012240F270
:1057500025510B48FFF720FF25208DF80000012080
:105760008DF8030000208DF8010002208DF8020062
:105770006846FEF749F906B010BD00000008014078
:105780000038014010B586B0044601210420FFF71F
:1057900087FA01214804FFF773FA18208DF81700E3
:1057A0000420ADF8140003208DF8160005A91E484A
:1057B000FDF79AF804208DF817000820ADF81400C2
:1057C00003208DF8160005A91748FDF78DF8019400
:1057D0000020ADF810000C20ADF80E000020ADF850
:1057E0000C00ADF80A00ADF8080001A90F48FFF75A
:1057F000F9FE01210D48FFF78CFE012240F22551F0
:105800000A48FFF7C9FE26208DF8000001208DF818
:10581000030000208DF8010002208DF80200684688
:10582000FEF7F2F806B010BD000801400044004049
:1058300010B586B0044601211020FFF731FA01218E
:10584000C804FFF71DFA4FF48060ADF81000032084
:105850008DF8120018208DF8130004A92448FDF7D4
:1058600043F84FF40060ADF8100003208DF81200EB
:1058700004208DF8130004A91D48FDF735F80094A5
:105880000020ADF80400ADF80600ADF80800ADF852
:105890000C000C20ADF80A0069461648FFF7A2FE7E
:1058A00001211448FFF735FE012240F2255111482D
:1058B000FFF772FE34208DF8140002208DF81500D9
:1058C00003208DF8160001208DF8170005A8FEF7BB
:1058D0009BF841F61F416320FFF7F8FC00200649C2
:1058E000088000210548FFF724FD06B010BD000028
:1058F00000100140004C0040440000200014004013
:105900000FB430B5CBB0054601AC50A800904FF4B1
:10591000947101A8009B4F9AFAF756FD0020009061
:105920000BE014F8011B2846FFF7CDFE00BF402115
:105930002846FFF7FAFD0028F9D020780028F0D19A
:105940004BB030BC5DF814FB2DE9F04107460C4626
:10595000154600260DE014F8011B3846FFF7B3FE8C
:1059600000BF40213846FFF7E0FD0028F9D0701C49
:1059700086B2AE42EFDBBDE8F081490050EAC120BB
:1059800018BF04204A0D18BF40F0010040F2FF721A
:10599000B2EB515F08BF40F00200012808BF0520AC
:1059A00070472DE9F0414F1E00EBC7010446D1E9D5
:1059B000000115461E4637F006020DD02A46334632
:1059C00002F07EFE7F1E04EBC703D3E9002302F042
:1059D000CDFB37F00602F1D1022F25D0042F13D0D2
:1059E000062F18BFBDE8F0812A46334602F068FE54
:1059F000D4E90A2302F0BAFB2A46334602F060FEDD
:105A0000D4E9082302F0B2FB2A46334602F058FEDE
:105A1000D4E9062302F0AAFB2A46334602F050FEE0
:105A2000D4E9042302F0A2FB2A46334602F048FEE2
:105A3000D4E9022302F09AFB2A46334602F040FEE4
:105A4000D4E90023BDE8F04102F090BB00221346E8
:105A50001046014902F046BC0000F03F02F086BB50
:105A6000002213461046114602F03CBC40F20132BF
:105A700000204FF0E04103F07BBA0000024A002012
:105A8000110703F075BA000001FDFFFF30380A2846
:105A900001D20120704700207047000070B5044615
:105AA00022E02568A08900F4807020B9A06810B1B8
:105AB000A068FFF7F3FFA08900F4807028B920697F
:105AC00018B10B49206909688847A08900F4007063
:105AD00028B9206A18B10649206A09688847204613
